:0400000080313228F1
:100008007E14803120007F082000C5000B1F1628B1
:100018002100911D16282000911D16288231962254
:1000280080312C280B1F22282100931D2228200014
:10003800931D222886318D2680312C280B1F2C28D1
:100048002100111F2C282000111F2C288531402544
:10005800200045082000FF007E1009008031342868
:1000680034308400863085002030860000308700D8
:100078001D308631A426CE01CF01D001D101D20195
:10008800D301D401D501D601D7017E1020008031DB
:100098004D280222803122008D13462180314D21C6
:1000A8008031572180315E21803122000E128B135E
:1000B8000B1322008E1022000E11542180312100D2
:1000C8000D1222000D1221000D1322000D13210024
:1000D8000C1222000C1221008C1222008C1221001A
:1000E8008C1022008C1021000C1022000C106821AA
:1000F80080316521803118302000C6000430C700E7
:10010800F62180312000382904306B218031BB3042
:1001180020004702403003194602031C9828023089
:100128002000CA002000CD282100171463002100F8
:1001380017103A29FF218031F321803104308F21B3
:100148008031A22180318B170B1722000E15210058
:100158000C1621008C1621008C1421000C1424008C
:100168000D1624000D1721000D1621000D17D8219A
:10017800803122008E1422008D17A5218031B921EB
:100188008031DB218031E721803103302000CA0033
:100198002000CD003A2922000E1620005708031926
:1001A800D1280A30CD2180312000CA009B304A0274
:1001B8000318E0282000E42820008D1E3A2920009A
:1001C800CD013A2922008D13462180314D218031FD
:1001D800572180315E21803122000E128B130B13C0
:1001E80022000E112000CB01CC0120004C08803ADF
:1001F8002000CA0080304A02031D05290A30200069
:100208004B020318132920008D1A132921001714F3
:10021800630001302000CB070030CC3DF9282100D5
:10022800171022008E105421803121000D12220057
:100238000D1221000D1322000D1321000C122200B3
:100248000C1221008C1222008C1221008C1022002A
:100258008C1021000C1022000C1022000E156821B1
:100268008031652180312000CD01CD0A20004D0864
:1002780084000430040203183A2985310435F23E1B
:1002880082003A292500930121008E1222008E1245
:10029800080025009A0121008E1122008E11080005
:1002A8002400951208002600930121000C11220059
:1002B8000C11080026009A0121000E1322000E13CB
:1002C800080020001C11080028001E11080020004A
:1002D800C900200049082000C800C80DC80D210029
:1002E8001D08200048068339480621009D0021008A
:1002F8001D140D30890B7E29000021009D1421005A
:100308009D18832921001C082000C70021001B0814
:100318002000C60008002000C70020004708200071
:10032800C600C60DC60D21001D08200046068339EB
:10033800460621009D0021001D14080021009D147F
:1003480008001D3025009300250095018030250008
:1003580094000130250096007D302500910025008D
:100368009201FC3025009E0508003C3025009A00CB
:1003780025009C01803025009B00013025009D0050
:10038800BF302500980025009901F33025009E050F
:1003980008002000C60020004608203E86000030E5
:1003A8008701873D010808002400951608003C30A5
:1003B80026009300BF302600910026009201CF301E
:1003C80025009E0508003C3026009A00BF30260014
:1003D8009800260099013F3025009E05080020005E
:1003E8001C150800200047082000CF002000460800
:1003F8002000CE00080028001E1508004B2280317E
:1004080042228031872280312D228031732280312F
:10041800202280318B2221008E1222008E12210090
:100428008E1122008E1121000C1122000C112100C6
:100438000E1322000E130800013021009D00203009
:1004480021009E0021009B0121009C012100111721
:100458000800240094012630240095002400960109
:10046800083024009700FE30240093001030240048
:100478009200200091112100911508007030210090
:1004880099002100980121001A1B0800472A220020
:100498008C0122008D01043022008E001B302100C7
:1004A8008C00703021008D00813021008E00C73013
:1004B80023008E0023008D01173023008C0050305C
:1004C80024008D002C3024008C006E3024008E0017
:1004D8002100951322009E0122009D01080003308F
:1004E80028009E00FE3028009D0028009C01200066
:1004F800931121009315AA302000C6000630C700CA
:10050800F6218031FF2914302100970008000330BC
:1005180020009C00FF3020009B0020009A01200052
:100528009110F32955302000C1002000C20020009E
:100538009111240011082000C1002000C2002400ED
:10054800141DB02A2400941EAE2A2400161FAE2AB9
:100558000330BC2A0130BC2A2400941AB52A003082
:10056800BC2A200042082000C1002000BB00023045
:10057800C0222400151608002000C000D72B200038
:10058800D101D10A080020003B082000BE0020004D
:10059800D200962B20003B1CD42A21000C16D62A08
:1005A80021000C122000BB1CDF2A23000C1603308C
:1005B800FC238231E42A23000C120330E323823126
:1005C80020003B1DE92A2400392B24003C2B200065
:1005D8003B1CF12A21008C16F32A21008C122000E2
:1005E8003B1DF82A2400432B2400462B20003B1CEB
:1005F800002B21008C14022B21008C102000BB1C26
:100608000B2B23008C140130FC238231102B230088
:100618008C100130E323823120003B1D152B240070
:100628004D2B2400502B20003B1C1D2B21000C14AB
:100638001F2B21000C102000BB1C282B23000C149E
:100648000030FC2382312D2B23000C100030E323D3
:10065800823120003B1D322B2400572B24005A2BBB
:1006680020003B0803193B2B22000C16712B22009B
:100678000C12712B20003B080319452B22008C1605
:10068800712B22008C12712B20003B0803194F2B71
:1006980022008C14712B22008C10712B20003B0837
:1006A8000319592B22000C14712B22000C10712BEA
:1006B8002000D601D60A712B2000D601712B20000C
:1006C8005208FF3E031C712B84001A3004020318E1
:1006D800712B86310435003E820020005208203EEE
:1006E8002000BE000030BF01BF3D3E0886003F0825
:1006F800870020003B08810001302000BE00200058
:10070800D2071B3020005202031C962B2000D20176
:10071800962B20005108003A0319632B013A03195C
:10072800C72A632B2000D1010800003020000C1AD2
:1007380001302400BA2B003020008C1A013024002C
:10074800BA2B003020008C1801302400BA2B00305E
:1007580020000C1801302400BA2B20005208203E3B
:10076800860000308701873D010824009100CB2BCB
:1007780020005208173A0319992B0F3A03199F2B97
:10078800013A0319A52B033A0319AB2BB12B0130FE
:100798002000BE002000D2071B305202031C0800B4
:1007A8002000D20108002000400884000430040220
:1007B80003180800863104359C3E8200080020009A
:1007C800BD00EF2B2000D50108002000D40108004F
:1007D8002000D301080020003D08003A0319EC2B43
:1007E800013A0319E92B023A0319E62BFB2B0800FF
:1007F8002000BD000B2C2000D501D50A08002000E0
:10080800D401D40A08002000D301D30A080020002C
:100818003D08003A0319072C013A0319032C023A40
:100828000319FF2B172C0800922C3A2584319D2C94
:1008380020005608031D9D2C0230AC248431200072
:10084800C200C301C3000130C201AC2484312000BE
:1008580042072000BE00200043080318430A200076
:10086800BF00B72484319D2C20005608031D9D2C01
:100878000430AC2484312000C200C301C30003301B
:10088800C201AC248431200042072000BE002000B1
:1008980043080318430A2000BF00D72484319D2C45
:1008A80020005608031D9D2C0630AC2484312000FE
:1008B800C200C301C3000530C201AC24843120004A
:1008C80042072000BE00200043080318430A200006
:1008D800BF00F72484319D2C20005608031D9D2C51
:1008E8000830AC2484312000C200C301C3000730A3
:1008F800C201AC248431200042072000BE00200041
:1009080043080318430A2000BF00172584319D2C93
:10091800FF3020009A00372584319D2C2000500894
:1009280084000A30040203189D2C86310435513E98
:1009380082000930200050020318A82C0130200042
:10094800C2002000D007AA2C2000D0013D250800B5
:100958002000BD0020003D08203E860000308701B1
:10096800873D0108080020003F082000C100200042
:100978003E082000C000C136C00CC136C00C40087B
:100988002500910020003E0803392000C0000430F3
:10099800C035890BCC2C25001308CF392000400422
:1009A80025009300080020003F082000C100200017
:1009B8003E082000C000C136C00CC136C00C40083B
:1009C8002500980020003E0803392000C0000430AC
:1009D800C035890BEC2C25001A08CF3920004004BB
:1009E80025009A00080020003F082000C1002000D0
:1009F8003E082000C000C136C00CC136C00C4008FB
:100A08002600910020003E0803392000C000043071
:100A1800C035890B0C2D26001308CF39200040045F
:100A280026009300080020003F082000C100200095
:100A38003E082000C000C136C00CC136C00C4008BA
:100A48002600980020003E0803392000C00004302A
:100A5800C035890B2C2D26001A08CF3920004004F8
:100A680026009A00080020001C15080020001C1110
:100A7800080021009D14080022008E162000111382
:100A8800892D21001C082000C1002000BD000A306B
:100A9800CD25853121001B082000C1002000BD00A4
:100AA8000930CD258531BE2D21001C082000C1004C
:100AB8002000BD000C30CD25853121001B08200009
:100AC800C1002000BD000B30CD258531BE2D210091
:100AD8001C082000C1002000BD000E30CD25853146
:100AE800BE2D21001C082000C1002000BD001030D0
:100AF800CD258531BE2D21001C082000C100200015
:100B0800BD001230CD258531BE2D20003C08840063
:100B18000A3004020318BE2D86310435653E820072
:100B2800BE2D09302000C1002000A22D200055084C
:100B38000319A42D03302000C1002000BC00C92DDA
:100B4800200054080319AC2D2000BC01BC0AC92D93
:100B5800200053080319B32D2000BC01C92D04300F
:100B68002000C1002000BC0001302000C10020008E
:100B7800D700C92D20003C0884000A30040203185D
:100B8800C92D86310435793E820020003C08DF25D6
:100B980008002000C00020004008203E2000BE00C1
:100BA8000030BF01BF3D3E0886003F088700200097
:100BB8003D08810008002000BE0020003E082000FB
:100BC800BD00BD0DBD0D21001D0820003D06833967
:100BD8003D0621009D0021001D1408008031E628F3
:0C0BE8008031882880319E288031CF2881
:100C000083315C2B8331602B83315C2B8331602BF0
:100C100083315C2B8331602B83315C2B8331602BE0
:100C20008331712B8331712B8331712B8331712B84
:100C30008331712B8331712B8331712B8331712B74
:100C40008331712B8331712B8231CE2A8231EB2A91
:100C50008231FA2A8331172B8331342B83313E2B97
:100C60008331482B8331522B003401340234033456
:100C700004340534063407340834003400340034B6
:100C800000340034003400340034003400340034C4
:100C9000003400340034003400340034003455345F
:100CA00004348431192C84311C2C8431382C843147
:100CB000542C8431702C84319D2C84319D2C8431B2
:100CC0009D2C84319D2C84318C2C85317F2D853158
:100CD000752D8531BE2D85316B2D8531452D8531A5
:100CE000BE2D8531BE2D8531BE2D8531BE2D853180
:100CF000582D8531B32D8531AC2D8531C92D8531E8
:100D0000A42D8531952D8531C92D8531C92D85318C
:100D1000C92D8531C92D85319A2D20009311902E32
:100D200020004E084F040319080020004F088A00D5
:100D30004E080A00863108008231C32A8331BC2B59
:100D400083318D2B8331E22BFE0012001E00FE0B3F
:060D5000A52E003408008E
:020000040001F9
:04000E00ECFFFFDF25
:00000001FF
